Component: ARM Compiler 5.06 update 6 (build 750) Tool: armlink [4d35ed]

==============================================================================

Section Cross References

    main.o(i.fputc) refers to stm32f4xx_usart.o(i.USART_SendData) for USART_SendData
    main.o(i.fputc) refers to stm32f4xx_usart.o(i.USART_GetFlagStatus) for USART_GetFlagStatus
    main.o(i.main) refers to misc.o(i.SysTick_CLKSourceConfig) for SysTick_CLKSourceConfig
    main.o(i.main) refers to misc.o(i.NVIC_PriorityGroupConfig) for NVIC_PriorityGroupConfig
    main.o(i.main) refers to key.o(i.EXTILine_Config) for EXTILine_Config
    main.o(i.main) refers to usart.o(i.USART_Config) for USART_Config
    main.o(i.main) refers to display.o(i.display_Init) for display_Init
    main.o(i.main) refers to beep_init.o(i.beep_init) for beep_init
    main.o(i.main) refers to dht11.o(i.Read_DHT11_Data) for Read_DHT11_Data
    main.o(i.main) refers to sr04.o(i.GETdis) for GETdis
    main.o(i.main) refers to adc_ldr.o(i.ADC_EXE) for ADC_EXE
    main.o(i.main) refers to printf1.o(i.__0printf$1) for __2printf
    main.o(i.main) refers to main.o(.data) for flag
    delay.o(i.delay_ms) refers to delay.o(i.delay_us) for delay_us
    led.o(i.LED_Init) refers to stm32f4xx_rcc.o(i.RCC_AHB1PeriphClockCmd) for RCC_AHB1PeriphClockCmd
    led.o(i.LED_Init) refers to stm32f4xx_gpio.o(i.GPIO_Init) for GPIO_Init
    led.o(i.LED_Init) refers to stm32f4xx_gpio.o(i.GPIO_SetBits) for GPIO_SetBits
    dht11.o(i.DHT11_IOin) refers to stm32f4xx_rcc.o(i.RCC_AHB1PeriphClockCmd) for RCC_AHB1PeriphClockCmd
==============================================================================

Removing Unused input sections from the image.

    Removing main.o(.rev16_text), (4 bytes).
    Removing main.o(.revsh_text), (4 bytes).
    Removing main.o(.rrx_text), (6 bytes).
    Removing delay.o(.rev16_text), (4 bytes).
    Removing delay.o(.revsh_text), (4 bytes).
    Removing delay.o(.rrx_text), (6 bytes).
    Removing led.o(.rev16_text), (4 bytes).
    Removing led.o(.revsh_text), (4 bytes).
    Removing led.o(.rrx_text), (6 bytes).
    Removing led.o(i.LED_Init), (60 bytes).
    Removing dht11.o(.rev16_text), (4 bytes).
    Removing dht11.o(.revsh_text), (4 bytes).
    Removing dht11.o(.rrx_text), (6 bytes).
    Removing dht11.o(.data), (5 bytes).
    Removing key.o(.rev16_text), (4 bytes).
    Removing key.o(.revsh_text), (4 bytes).
    Removing key.o(.rrx_text), (6 bytes).
    Removing usart.o(.rev16_text), (4 bytes).
==============================================================================

Image Symbol Table

    Local Symbols

    Symbol Name                              Value     Ov Type        Size  Object(Section)

    ../clib/microlib/division.c              0x00000000   Number         0  uldiv.o ABSOLUTE
    ../clib/microlib/division.c              0x00000000   Number         0  uidiv.o ABSOLUTE
    ../clib/microlib/init/entry.s            0x00000000   Number         0  entry.o ABSOLUTE
    ../clib/microlib/init/entry.s            0x00000000   Number         0  entry11a.o ABSOLUTE
    ../clib/microlib/init/entry.s            0x00000000   Number         0  entry7b.o ABSOLUTE
    ../clib/microlib/init/entry.s            0x00000000   Number         0  entry8a.o ABSOLUTE
    ../clib/microlib/init/entry.s            0x00000000   Number         0  entry9a.o ABSOLUTE
    ../clib/microlib/init/entry.s            0x00000000   Number         0  entry9b.o ABSOLUTE
    ../clib/microlib/init/entry.s            0x00000000   Number         0  entry10a.o ABSOLUTE
    ../clib/microlib/init/entry.s            0x00000000   Number         0  entry8b.o ABSOLUTE
    ../clib/microlib/init/entry.s            0x00000000   Number         0  entry10b.o ABSOLUTE
    ../clib/microlib/init/entry.s            0x00000000   Number         0  entry11b.o ABSOLUTE
    ../clib/microlib/init/entry.s            0x00000000   Number         0  entry2.o ABSOLUTE
    ../clib/microlib/init/entry.s            0x00000000   Number         0  entry5.o ABSOLUTE
    ../clib/microlib/init/entry.s            0x00000000   Number         0  entry7a.o ABSOLUTE
    ../clib/microlib/longlong.c              0x00000000   Number         0  llsshr.o ABSOLUTE
    ../clib/microlib/longlong.c              0x00000000   Number         0  llshl.o ABSOLUTE
    ../clib/microlib/longlong.c              0x00000000   Number         0  llushr.o ABSOLUTE
    ../clib/microlib/printf/printf.c         0x00000000   Number         0  printf0.o ABSOLUTE
    ../clib/microlib/printf/printf.c         0x00000000   Number         0  printfa.o ABSOLUTE
    ../clib/microlib/printf/printf.c         0x00000000   Number         0  printf1.o ABSOLUTE
    ../clib/microlib/printf/printf.c         0x00000000   Number         0  printfb.o ABSOLUTE
    ../clib/microlib/printf/printf.c         0x00000000   Number         0  printf2.o ABSOLUTE
    ../clib/microlib/printf/printf.c         0x00000000   Number         0  printf3.o ABSOLUTE
    ../clib/microlib/printf/printf.c         0x00000000   Number         0  printf4.o ABSOLUTE
    ../clib/microlib/printf/printf.c         0x00000000   Number         0  printf5.o ABSOLUTE
    ../clib/microlib/printf/printf.c         0x00000000   Number         0  printf6.o ABSOLUTE
    ../clib/microlib/printf/printf.c         0x00000000   Number         0  printf7.o ABSOLUTE
    ../clib/microlib/printf/printf.c         0x00000000   Number         0  printf8.o ABSOLUTE
    ../clib/microlib/printf/stubs.s          0x00000000   Number         0  stubs.o ABSOLUTE
    ../clib/microlib/stdio/streams.c         0x00000000   Number         0  stdout.o ABSOLUTE
    ../clib/microlib/stubs.s                 0x00000000   Number         0  iusefp.o ABSOLUTE
    ../fplib/microlib/fpadd.c                0x00000000   Number         0  dadd.o ABSOLUTE
    ../fplib/microlib/fpdiv.c                0x00000000   Number         0  ddiv.o ABSOLUTE
    ../fplib/microlib/fpepilogue.c           0x00000000   Number         0  depilogue.o ABSOLUTE
    ../fplib/microlib/fpfix.c                0x00000000   Number         0  dfixul.o ABSOLUTE
    ../fplib/microlib/fpmul.c                0x00000000   Number         0  dmul.o ABSOLUTE
    CODE\ADC_LDR.c                           0x00000000   Number         0  adc_ldr.o ABSOLUTE
    CODE\SR04.c                              0x00000000   Number         0  sr04.o ABSOLUTE
    CODE\\ADC_LDR.c                          0x00000000   Number         0  adc_ldr.o ABSOLUTE
    CODE\\SR04.c                             0x00000000   Number         0  sr04.o ABSOLUTE
    CODE\\beep_init.c                        0x00000000   Number         0  beep_init.o ABSOLUTE
    CODE\\delay.c                            0x00000000   Number         0  delay.o ABSOLUTE
    CODE\\dht11.c                            0x00000000   Number         0  dht11.o ABSOLUTE
    CODE\\display.c                          0x00000000   Number         0  display.o ABSOLUTE
    CODE\\key.c                              0x00000000   Number         0  key.o ABSOLUTE
    CODE\\led.c                              0x00000000   Number         0  led.o ABSOLUTE
    CODE\\timer.c                            0x00000000   Number         0  timer.o ABSOLUTE
    CODE\\usart.c                            0x00000000   Number         0  usart.o ABSOLUTE
    CODE\beep_init.c                         0x00000000   Number         0  beep_init.o ABSOLUTE
    CODE\delay.c                             0x00000000   Number         0  delay.o ABSOLUTE
    CODE\dht11.c                             0x00000000   Number         0  dht11.o ABSOLUTE
    CODE\display.c                           0x00000000   Number         0  display.o ABSOLUTE
    CODE\key.c                               0x00000000   Number         0  key.o ABSOLUTE
    CODE\led.c                               0x00000000   Number         0  led.o ABSOLUTE
    CODE\timer.c                             0x00000000   Number         0  timer.o ABSOLUTE
    CODE\usart.c                             0x00000000   Number         0  usart.o ABSOLUTE
    E:\Software\MDK\ARM\PACK\Keil\STM32F4xx_DFP\1.0.8\Device\StdPeriph_Driver\src\misc.c 0x00000000   Number         0  misc.o ABSOLUTE
    E:\Software\MDK\ARM\PACK\Keil\STM32F4xx_DFP\1.0.8\Device\StdPeriph_Driver\src\stm32f4xx_adc.c 0x00000000   Number         0  stm32f4xx_adc.o ABSOLUTE
    E:\Software\MDK\ARM\PACK\Keil\STM32F4xx_DFP\1.0.8\Device\StdPeriph_Driver\src\stm32f4xx_exti.c 0x00000000   Number         0  stm32f4xx_exti.o ABSOLUTE
    E:\Software\MDK\ARM\PACK\Keil\STM32F4xx_DFP\1.0.8\Device\StdPeriph_Driver\src\stm32f4xx_gpio.c 0x00000000   Number         0  stm32f4xx_gpio.o ABSOLUTE
    E:\Software\MDK\ARM\PACK\Keil\STM32F4xx_DFP\1.0.8\Device\StdPeriph_Driver\src\stm32f4xx_rcc.c 0x00000000   Number         0  stm32f4xx_rcc.o ABSOLUTE
    E:\Software\MDK\ARM\PACK\Keil\STM32F4xx_DFP\1.0.8\Device\StdPeriph_Driver\src\stm32f4xx_syscfg.c 0x00000000   Number         0  stm32f4xx_syscfg.o ABSOLUTE
    E:\Software\MDK\ARM\PACK\Keil\STM32F4xx_DFP\1.0.8\Device\StdPeriph_Driver\src\stm32f4xx_tim.c 0x00000000   Number         0  stm32f4xx_tim.o ABSOLUTE
    E:\Software\MDK\ARM\PACK\Keil\STM32F4xx_DFP\1.0.8\Device\StdPeriph_Driver\src\stm32f4xx_usart.c 0x00000000   Number         0  stm32f4xx_usart.o ABSOLUTE
    E:\\Software\\MDK\\ARM\\PACK\\Keil\\STM32F4xx_DFP\\1.0.8\\Device\\StdPeriph_Driver\\src\\misc.c 0x00000000   Number         0  misc.o ABSOLUTE
    E:\\Software\\MDK\\ARM\\PACK\\Keil\\STM32F4xx_DFP\\1.0.8\\Device\\StdPeriph_Driver\\src\\stm32f4xx_adc.c 0x00000000   Number         0  stm32f4xx_adc.o ABSOLUTE
    E:\\Software\\MDK\\ARM\\PACK\\Keil\\STM32F4xx_DFP\\1.0.8\\Device\\StdPeriph_Driver\\src\\stm32f4xx_exti.c 0x00000000   Number         0  stm32f4xx_exti.o ABSOLUTE
    E:\\Software\\MDK\\ARM\\PACK\\Keil\\STM32F4xx_DFP\\1.0.8\\Device\\StdPeriph_Driver\\src\\stm32f4xx_gpio.c 0x00000000   Number         0  stm32f4xx_gpio.o ABSOLUTE
    E:\\Software\\MDK\\ARM\\PACK\\Keil\\STM32F4xx_DFP\\1.0.8\\Device\\StdPeriph_Driver\\src\\stm32f4xx_rcc.c 0x00000000   Number         0  stm32f4xx_rcc.o ABSOLUTE
    E:\\Software\\MDK\\ARM\\PACK\\Keil\\STM32F4xx_DFP\\1.0.8\\Device\\StdPeriph_Driver\\src\\stm32f4xx_syscfg.c 0x00000000   Number         0  stm32f4xx_syscfg.o ABSOLUTE
    E:\\Software\\MDK\\ARM\\PACK\\Keil\\STM32F4xx_DFP\\1.0.8\\Device\\StdPeriph_Driver\\src\\stm32f4xx_tim.c 0x00000000   Number         0  stm32f4xx_tim.o ABSOLUTE
    E:\\Software\\MDK\\ARM\\PACK\\Keil\\STM32F4xx_DFP\\1.0.8\\Device\\StdPeriph_Driver\\src\\stm32f4xx_usart.c 0x00000000   Number         0  stm32f4xx_usart.o ABSOLUTE
    RTE\Device\STM32F401VE\startup_stm32f401xx.s 0x00000000   Number         0  startup_stm32f401xx.o ABSOLUTE
    RTE\Device\STM32F401VE\system_stm32f4xx.c 0x00000000   Number         0  system_stm32f4xx.o ABSOLUTE
    RTE\\Device\\STM32F401VE\\system_stm32f4xx.c 0x00000000   Number         0  system_stm32f4xx.o ABSOLUTE
    USER\\main.c                             0x00000000   Number         0  main.o ABSOLUTE
    USER\main.c                              0x00000000   Number         0  main.o ABSOLUTE
    cdrcmple.s                               0x00000000   Number         0  cdrcmple.o ABSOLUTE
    dc.s                                     0x00000000   Number         0  dc.o ABSOLUTE
    handlers.s                               0x00000000   Number         0  handlers.o ABSOLUTE
    init.s                                   0x00000000   Number         0  init.o ABSOLUTE
    RESET                                    0x08000000   Section      404  startup_stm32f401xx.o(RESET)
    .ARM.Collect$$$$00000000                 0x08000194   Section        0  entry.o(.ARM.Collect$$$$00000000)
    .ARM.Collect$$$$00000001                 0x08000194   Section        4  entry2.o(.ARM.Collect$$$$00000001)
    .ARM.Collect$$$$00000004                 0x08000198   Section        4  entry5.o(.ARM.Collect$$$$00000004)
    .ARM.Collect$$$$00000008                 0x0800019c   Section        0  entry7b.o(.ARM.Collect$$$$00000008)
    .ARM.Collect$$$$0000000A                 0x0800019c   Section        0  entry8b.o(.ARM.Collect$$$$0000000A)
    .ARM.Collect$$$$0000000B                 0x0800019c   Section        8  entry9a.o(.ARM.Collect$$$$0000000B)
    .ARM.Collect$$$$0000000D                 0x080001a4   Section        0  entry10a.o(.ARM.Collect$$$$0000000D)
    .ARM.Collect$$$$0000000F                 0x080001a4   Section        0  entry11a.o(.ARM.Collect$$$$0000000F)
    .ARM.Collect$$$$00002712                 0x080001a4   Section        4  entry2.o(.ARM.Collect$$$$00002712)
    __lit__00000000                          0x080001a4   Data           4  entry2.o(.ARM.Collect$$$$00002712)
    .text                                    0x080001a8   Section       36  startup_stm32f401xx.o(.text)
    $v0                                      0x080001a8   Number         0  startup_stm32f401xx.o(.text)
    .text                                    0x080001cc   Section        0  uidiv.o(.text)
    .text                                    0x080001f8   Section       36  init.o(.text)
    i.ADC_Cmd                                0x0800021c   Section        0  stm32f4xx_adc.o(i.ADC_Cmd)
    i.ADC_CommonInit                         0x08000234   Section        0  stm32f4xx_adc.o(i.ADC_CommonInit)
    i.ADC_EXE                                0x08000264   Section        0  adc_ldr.o(i.ADC_EXE)
    i.ADC_GetConversionValue                 0x08000470   Section        0  stm32f4xx_adc.o(i.ADC_GetConversionValue)
    i.ADC_GetFlagStatus                      0x08000478   Section        0  stm32f4xx_adc.o(i.ADC_GetFlagStatus)
    i.ADC_Init                               0x0800048c   Section        0  stm32f4xx_adc.o(i.ADC_Init)
    i.ADC_RegularChannelConfig               0x080004e0   Section        0  stm32f4xx_adc.o(i.ADC_RegularChannelConfig)
    i.ADC_SoftwareStartConv                  0x08000598   Section        0  stm32f4xx_adc.o(i.ADC_SoftwareStartConv)
    i.DHT11_IOin                             0x080005a4   Section        0  dht11.o(i.DHT11_IOin)
    i.DHT11_IOout                            0x080005d4   Section        0  dht11.o(i.DHT11_IOout)
    i.DHT11_Response                         0x0800061c   Section        0  dht11.o(i.DHT11_Response)
    i.DHT11_Start                            0x08000720   Section        0  dht11.o(i.DHT11_Start)
    i.EXTI0_IRQHandler                       0x0800074c   Section        0  key.o(i.EXTI0_IRQHandler)
    i.EXTI1_IRQHandler                       0x08000768   Section        0  key.o(i.EXTI1_IRQHandler)
    i.EXTI2_IRQHandler                       0x08000784   Section        0  key.o(i.EXTI2_IRQHandler)
    i.EXTI3_IRQHandler                       0x080007a0   Section        0  key.o(i.EXTI3_IRQHandler)
    i.EXTILine_Config                        0x080007bc   Section        0  key.o(i.EXTILine_Config)
    i.EXTI_ClearITPendingBit                 0x08000878   Section        0  stm32f4xx_exti.o(i.EXTI_ClearITPendingBit)
    i.EXTI_GetITStatus                       0x08000884   Section        0  stm32f4xx_exti.o(i.EXTI_GetITStatus)
    i.EXTI_Init                              0x0800089c   Section        0  stm32f4xx_exti.o(i.EXTI_Init)
    i.GETdis                                 0x08000930   Section        0  sr04.o(i.GETdis)
    i.GPIO_Init                              0x08000980   Section        0  stm32f4xx_gpio.o(i.GPIO_Init)
    i.GPIO_PinAFConfig                       0x08000a10   Section        0  stm32f4xx_gpio.o(i.GPIO_PinAFConfig)
    i.GPIO_SetBits                           0x08000a56   Section        0  stm32f4xx_gpio.o(i.GPIO_SetBits)
    i.GPIO_Write                             0x08000a5a   Section        0  stm32f4xx_gpio.o(i.GPIO_Write)
    i.HCSR04_Init                            0x08000a60   Section        0  sr04.o(i.HCSR04_Init)
    i.KEY_Init                               0x08000ab4   Section        0  key.o(i.KEY_Init)
    i.LDR_Init1                              0x08000ae4   Section        0  adc_ldr.o(i.LDR_Init1)
    i.LDR_Init2                              0x08000b64   Section        0  adc_ldr.o(i.LDR_Init2)
    i.NVIC_Init                              0x08000be4   Section        0  misc.o(i.NVIC_Init)
    i.NVIC_PriorityGroupConfig               0x08000c5c   Section        0  misc.o(i.NVIC_PriorityGroupConfig)
    i.RCC_AHB1PeriphClockCmd                 0x08000c70   Section        0  stm32f4xx_rcc.o(i.RCC_AHB1PeriphClockCmd)
    i.RCC_APB2PeriphClockCmd                 0x08000c90   Section        0  stm32f4xx_rcc.o(i.RCC_APB2PeriphClockCmd)
    i.RCC_GetClocksFreq                      0x08000cb0   Section        0  stm32f4xx_rcc.o(i.RCC_GetClocksFreq)
    i.Read_DHT11_Data                        0x08000d98   Section        0  dht11.o(i.Read_DHT11_Data)
    i.Read_DHT11_DataByte                    0x08000fbc   Section        0  dht11.o(i.Read_DHT11_DataByte)
    i.SR04_Getdis                            0x08001000   Section        0  sr04.o(i.SR04_Getdis)
    i.SYSCFG_EXTILineConfig                  0x08001044   Section        0  stm32f4xx_syscfg.o(i.SYSCFG_EXTILineConfig)
    i.SetSysClock                            0x08001084   Section        0  system_stm32f4xx.o(i.SetSysClock)
    SetSysClock                              0x08001085   Thumb Code   216  system_stm32f4xx.o(i.SetSysClock)
    i.SysTick_CLKSourceConfig                0x0800116c   Section        0  misc.o(i.SysTick_CLKSourceConfig)
    i.SystemInit                             0x08001194   Section        0  system_stm32f4xx.o(i.SystemInit)
    i.TIM4_IRQHandler                        0x080011fc   Section        0  timer.o(i.TIM4_IRQHandler)
    i.TIM_ClearITPendingBit                  0x08001230   Section        0  stm32f4xx_tim.o(i.TIM_ClearITPendingBit)
    i.TIM_GetITStatus                        0x08001236   Section        0  stm32f4xx_tim.o(i.TIM_GetITStatus)
    i.USART1_IRQHandler                      0x08001258   Section        0  usart.o(i.USART1_IRQHandler)
    i.USART_ClearITPendingBit                0x0800129c   Section        0  stm32f4xx_usart.o(i.USART_ClearITPendingBit)
    i.USART_Cmd                              0x080012ba   Section        0  stm32f4xx_usart.o(i.USART_Cmd)
    i.USART_Config                           0x080012d4   Section        0  usart.o(i.USART_Config)
    i.USART_GetFlagStatus                    0x08001384   Section        0  stm32f4xx_usart.o(i.USART_GetFlagStatus)
    i.USART_GetITStatus                      0x0800139e   Section        0  stm32f4xx_usart.o(i.USART_GetITStatus)
    i.USART_ITConfig                         0x080013f2   Section        0  stm32f4xx_usart.o(i.USART_ITConfig)
    i.USART_Init                             0x0800143c   Section        0  stm32f4xx_usart.o(i.USART_Init)
    i.USART_ReceiveData                      0x08001510   Section        0  stm32f4xx_usart.o(i.USART_ReceiveData)
    i.USART_SendData                         0x0800151a   Section        0  stm32f4xx_usart.o(i.USART_SendData)
    i.__0printf$1                            0x08001524   Section        0  printf1.o(i.__0printf$1)
    i.__scatterload_copy                     0x08001544   Section       14  handlers.o(i.__scatterload_copy)
    i.__scatterload_null                     0x08001552   Section        2  handlers.o(i.__scatterload_null)
    i.__scatterload_zeroinit                 0x08001554   Section       14  handlers.o(i.__scatterload_zeroinit)
    i._printf_core                           0x08001564   Section        0  printf1.o(i._printf_core)
    _printf_core                             0x08001565   Thumb Code   336  printf1.o(i._printf_core)
    i.beep_init                              0x080016b8   Section        0  beep_init.o(i.beep_init)
    i.delay_ms                               0x080016f4   Section        0  delay.o(i.delay_ms)
    i.delay_us                               0x0800170a   Section        0  delay.o(i.delay_us)
    i.display                                0x0800173c   Section        0  display.o(i.display)
    i.display_Init                           0x080017fc   Section        0  display.o(i.display_Init)
    i.fputc                                  0x08001834   Section        0  main.o(i.fputc)
    i.main                                   0x08001858   Section        0  main.o(i.main)
    .data                                    0x20000000   Section        8  main.o(.data)
    .data                                    0x20000008   Section       10  display.o(.data)
    .data                                    0x20000012   Section       16  stm32f4xx_rcc.o(.data)
    APBAHBPrescTable                         0x20000012   Data          16  stm32f4xx_rcc.o(.data)
    .data                                    0x20000024   Section        4  stdout.o(.data)
    STACK                                    0x20000028   Section    16384  startup_stm32f401xx.o(STACK)

    Global Symbols

    Symbol Name                              Value     Ov Type        Size  Object(Section)

    BuildAttributes$$THM_ISAv4$E$P$D$K$B$S$7EM$VFPi3$EXTD16$VFPS$VFMA$PE$A:L22UL41UL21$X:L11$S22US41US21$IEEE1$IW$USESV6$~STKCKD$USESV7$~SHL$OSPACE$ROPI$EBA8$MICROLIB$REQ8$PRES8$EABIv2 0x00000000   Number         0  anon$$obj.o ABSOLUTE
    __ARM_use_no_argv                        0x00000000   Number         0  main.o ABSOLUTE
    _printf_a                                0x00000000   Number         0  stubs.o ABSOLUTE
    _printf_c                                0x00000000   Number         0  stubs.o ABSOLUTE
    _printf_charcount                        0x00000000   Number         0  stubs.o ABSOLUTE
    _printf_d                                0x00000000   Number         0  stubs.o ABSOLUTE
    _printf_e                                0x00000000   Number         0  stubs.o ABSOLUTE
    _printf_f                                0x00000000   Number         0  stubs.o ABSOLUTE
    _printf_flags                            0x00000000   Number         0  stubs.o ABSOLUTE
    _printf_fp_dec                           0x00000000   Number         0  stubs.o ABSOLUTE
    _printf_fp_hex                           0x00000000   Number         0  stubs.o ABSOLUTE
    _printf_g                                0x00000000   Number         0  stubs.o ABSOLUTE
    _printf_i                                0x00000000   Number         0  stubs.o ABSOLUTE
    _printf_int_dec                          0x00000000   Number         0  stubs.o ABSOLUTE
    _printf_l                                0x00000000   Number         0  stubs.o ABSOLUTE
    _printf_lc                               0x00000000   Number         0  stubs.o ABSOLUTE
    _printf_ll                               0x00000000   Number         0  stubs.o ABSOLUTE
    _printf_lld                              0x00000000   Number         0  stubs.o ABSOLUTE
    _printf_lli                              0x00000000   Number         0  stubs.o ABSOLUTE
    _printf_llo                              0x00000000   Number         0  stubs.o ABSOLUTE
    _printf_llu                              0x00000000   Number         0  stubs.o ABSOLUTE
    _printf_llx                              0x00000000   Number         0  stubs.o ABSOLUTE
    _printf_longlong_dec                     0x00000000   Number         0  stubs.o ABSOLUTE
    _printf_longlong_hex                     0x00000000   Number         0  stubs.o ABSOLUTE
    _printf_longlong_oct                     0x00000000   Number         0  stubs.o ABSOLUTE
    _printf_ls                               0x00000000   Number         0  stubs.o ABSOLUTE
    _printf_mbtowc                           0x00000000   Number         0  stubs.o ABSOLUTE
    _printf_n                                0x00000000   Number         0  stubs.o ABSOLUTE
    _printf_o                                0x00000000   Number         0  stubs.o ABSOLUTE
    _printf_p                                0x00000000   Number         0  stubs.o ABSOLUTE
    _printf_percent                          0x00000000   Number         0  stubs.o ABSOLUTE
    _printf_pre_padding                      0x00000000   Number         0  stubs.o ABSOLUTE
    _printf_return_value                     0x00000000   Number         0  stubs.o ABSOLUTE
    _printf_s                                0x00000000   Number         0  stubs.o ABSOLUTE
    _printf_sizespec                         0x00000000   Number         0  stubs.o ABSOLUTE
    _printf_str                              0x00000000   Number         0  stubs.o ABSOLUTE
    _printf_truncate_signed                  0x00000000   Number         0  stubs.o ABSOLUTE
    _printf_truncate_unsigned                0x00000000   Number         0  stubs.o ABSOLUTE
    _printf_u                                0x00000000   Number         0  stubs.o ABSOLUTE
    _printf_wc                               0x00000000   Number         0  stubs.o ABSOLUTE
    _printf_wctomb                           0x00000000   Number         0  stubs.o ABSOLUTE
    _printf_widthprec                        0x00000000   Number         0  stubs.o ABSOLUTE
    _printf_x                                0x00000000   Number         0  stubs.o ABSOLUTE
    __cpp_initialize__aeabi_                  - Undefined Weak Reference
    __cxa_finalize                            - Undefined Weak Reference
    __decompress                              - Undefined Weak Reference
    _clock_init                               - Undefined Weak Reference
    _microlib_exit                            - Undefined Weak Reference
    __Vectors_Size                           0x00000194   Number         0  startup_stm32f401xx.o ABSOLUTE
    __Vectors                                0x08000000   Data           4  startup_stm32f401xx.o(RESET)
    __Vectors_End                            0x08000194   Data           0  startup_stm32f401xx.o(RESET)
    __main                                   0x08000195   Thumb Code     0  entry.o(.ARM.Collect$$$$00000000)
    _main_stk                                0x08000195   Thumb Code     0  entry2.o(.ARM.Collect$$$$00000001)
    _main_scatterload                        0x08000199   Thumb Code     0  entry5.o(.ARM.Collect$$$$00000004)
    __main_after_scatterload                 0x0800019d   Thumb Code     0  entry5.o(.ARM.Collect$$$$00000004)
    _main_clock                              0x0800019d   Thumb Code     0  entry7b.o(.ARM.Collect$$$$00000008)
    _main_cpp_init                           0x0800019d   Thumb Code     0  entry8b.o(.ARM.Collect$$$$0000000A)
    _main_init                               0x0800019d   Thumb Code     0  entry9a.o(.ARM.Collect$$$$0000000B)
    __rt_final_cpp                           0x080001a5   Thumb Code     0  entry10a.o(.ARM.Collect$$$$0000000D)
    __rt_final_exit                          0x080001a5   Thumb Code     0  entry11a.o(.ARM.Collect$$$$0000000F)
    Reset_Handler                            0x080001a9   Thumb Code     8  startup_stm32f401xx.o(.text)
    NMI_Handler                              0x080001b1   Thumb Code     2  startup_stm32f401xx.o(.text)
    HardFault_Handler                        0x080001b3   Thumb Code     2  startup_stm32f401xx.o(.text)
    MemManage_Handler                        0x080001b5   Thumb Code     2  startup_stm32f401xx.o(.text)
    BusFault_Handler                         0x080001b7   Thumb Code     2  startup_stm32f401xx.o(.text)
    UsageFault_Handler                       0x080001b9   Thumb Code     2  startup_stm32f401xx.o(.text)
    SVC_Handler                              0x080001bb   Thumb Code     2  startup_stm32f401xx.o(.text)
    DebugMon_Handler                         0x080001bd   Thumb Code     2  startup_stm32f401xx.o(.text)
    PendSV_Handler                           0x080001bf   Thumb Code     2  startup_stm32f401xx.o(.text)
    SysTick_Handler                          0x080001c1   Thumb Code     2  startup_stm32f401xx.o(.text)
    ADC_IRQHandler                           0x080001c3   Thumb Code     0  startup_stm32f401xx.o(.text)
    DMA1_Stream0_IRQHandler                  0x080001c3   Thumb Code     0  startup_stm32f401xx.o(.text)
    DMA1_Stream1_IRQHandler                  0x080001c3   Thumb Code     0  startup_stm32f401xx.o(.text)
    DMA1_Stream2_IRQHandler                  0x080001c3   Thumb Code     0  startup_stm32f401xx.o(.text)
    DMA1_Stream3_IRQHandler                  0x080001c3   Thumb Code     0  startup_stm32f401xx.o(.text)
    DMA1_Stream4_IRQHandler                  0x080001c3   Thumb Code     0  startup_stm32f401xx.o(.text)
    DMA1_Stream5_IRQHandler                  0x080001c3   Thumb Code     0  startup_stm32f401xx.o(.text)
    DMA1_Stream6_IRQHandler                  0x080001c3   Thumb Code     0  startup_stm32f401xx.o(.text)
    DMA1_Stream7_IRQHandler                  0x080001c3   Thumb Code     0  startup_stm32f401xx.o(.text)
    DMA2_Stream0_IRQHandler                  0x080001c3   Thumb Code     0  startup_stm32f401xx.o(.text)
    DMA2_Stream1_IRQHandler                  0x080001c3   Thumb Code     0  startup_stm32f401xx.o(.text)
    DMA2_Stream2_IRQHandler                  0x080001c3   Thumb Code     0  startup_stm32f401xx.o(.text)
    DMA2_Stream3_IRQHandler                  0x080001c3   Thumb Code     0  startup_stm32f401xx.o(.text)
    DMA2_Stream4_IRQHandler                  0x080001c3   Thumb Code     0  startup_stm32f401xx.o(.text)
    DMA2_Stream5_IRQHandler                  0x080001c3   Thumb Code     0  startup_stm32f401xx.o(.text)
    DMA2_Stream6_IRQHandler                  0x080001c3   Thumb Code     0  startup_stm32f401xx.o(.text)
    DMA2_Stream7_IRQHandler                  0x080001c3   Thumb Code     0  startup_stm32f401xx.o(.text)
    EXTI15_10_IRQHandler                     0x080001c3   Thumb Code     0  startup_stm32f401xx.o(.text)
    EXTI4_IRQHandler                         0x080001c3   Thumb Code     0  startup_stm32f401xx.o(.text)
    EXTI9_5_IRQHandler                       0x080001c3   Thumb Code     0  startup_stm32f401xx.o(.text)
    FLASH_IRQHandler                         0x080001c3   Thumb Code     0  startup_stm32f401xx.o(.text)
    FPU_IRQHandler                           0x080001c3   Thumb Code     0  startup_stm32f401xx.o(.text)
    I2C1_ER_IRQHandler                       0x080001c3   Thumb Code     0  startup_stm32f401xx.o(.text)
    I2C1_EV_IRQHandler                       0x080001c3   Thumb Code     0  startup_stm32f401xx.o(.text)
    I2C2_ER_IRQHandler                       0x080001c3   Thumb Code     0  startup_stm32f401xx.o(.text)
    I2C2_EV_IRQHandler                       0x080001c3   Thumb Code     0  startup_stm32f401xx.o(.text)
    I2C3_ER_IRQHandler                       0x080001c3   Thumb Code     0  startup_stm32f401xx.o(.text)
    I2C3_EV_IRQHandler                       0x080001c3   Thumb Code     0  startup_stm32f401xx.o(.text)
    OTG_FS_IRQHandler                        0x080001c3   Thumb Code     0  startup_stm32f401xx.o(.text)
    OTG_FS_WKUP_IRQHandler                   0x080001c3   Thumb Code     0  startup_stm32f401xx.o(.text)
    PVD_IRQHandler                           0x080001c3   Thumb Code     0  startup_stm32f401xx.o(.text)
    RCC_IRQHandler                           0x080001c3   Thumb Code     0  startup_stm32f401xx.o(.text)
    RTC_Alarm_IRQHandler                     0x080001c3   Thumb Code     0  startup_stm32f401xx.o(.text)
    RTC_WKUP_IRQHandler                      0x080001c3   Thumb Code     0  startup_stm32f401xx.o(.text)
    SDIO_IRQHandler                          0x080001c3   Thumb Code     0  startup_stm32f401xx.o(.text)
    SPI1_IRQHandler                          0x080001c3   Thumb Code     0  startup_stm32f401xx.o(.text)
    SPI2_IRQHandler                          0x080001c3   Thumb Code     0  startup_stm32f401xx.o(.text)
    SPI3_IRQHandler                          0x080001c3   Thumb Code     0  startup_stm32f401xx.o(.text)
    SPI4_IRQHandler                          0x080001c3   Thumb Code     0  startup_stm32f401xx.o(.text)
    TAMP_STAMP_IRQHandler                    0x080001c3   Thumb Code     0  startup_stm32f401xx.o(.text)
    TIM1_BRK_TIM9_IRQHandler                 0x080001c3   Thumb Code     0  startup_stm32f401xx.o(.text)
    TIM1_CC_IRQHandler                       0x080001c3   Thumb Code     0  startup_stm32f401xx.o(.text)
    TIM1_TRG_COM_TIM11_IRQHandler            0x080001c3   Thumb Code     0  startup_stm32f401xx.o(.text)
    TIM1_UP_TIM10_IRQHandler                 0x080001c3   Thumb Code     0  startup_stm32f401xx.o(.text)
    TIM2_IRQHandler                          0x080001c3   Thumb Code     0  startup_stm32f401xx.o(.text)
    TIM3_IRQHandler                          0x080001c3   Thumb Code     0  startup_stm32f401xx.o(.text)
    TIM5_IRQHandler                          0x080001c3   Thumb Code     0  startup_stm32f401xx.o(.text)
    USART2_IRQHandler                        0x080001c3   Thumb Code     0  startup_stm32f401xx.o(.text)
    USART6_IRQHandler                        0x080001c3   Thumb Code     0  startup_stm32f401xx.o(.text)
    WWDG_IRQHandler                          0x080001c3   Thumb Code     0  startup_stm32f401xx.o(.text)
    __aeabi_uidiv                            0x080001cd   Thumb Code     0  uidiv.o(.text)
    __aeabi_uidivmod                         0x080001cd   Thumb Code    44  uidiv.o(.text)
    __scatterload                            0x080001f9   Thumb Code    28  init.o(.text)
    __scatterload_rt2                        0x080001f9   Thumb Code     0  init.o(.text)
    ADC_Cmd                                  0x0800021d   Thumb Code    22  stm32f4xx_adc.o(i.ADC_Cmd)
    ADC_CommonInit                           0x08000235   Thumb Code    34  stm32f4xx_adc.o(i.ADC_CommonInit)
    ADC_EXE                                  0x08000265   Thumb Code   418  adc_ldr.o(i.ADC_EXE)
    ADC_GetConversionValue                   0x08000471   Thumb Code     8  stm32f4xx_adc.o(i.ADC_GetConversionValue)
    ADC_GetFlagStatus                        0x08000479   Thumb Code    18  stm32f4xx_adc.o(i.ADC_GetFlagStatus)
    ADC_Init                                 0x0800048d   Thumb Code    74  stm32f4xx_adc.o(i.ADC_Init)
    ADC_RegularChannelConfig                 0x080004e1   Thumb Code   184  stm32f4xx_adc.o(i.ADC_RegularChannelConfig)
    ADC_SoftwareStartConv                    0x08000599   Thumb Code    10  stm32f4xx_adc.o(i.ADC_SoftwareStartConv)
    DHT11_IOin                               0x080005a5   Thumb Code    44  dht11.o(i.DHT11_IOin)
    DHT11_IOout                              0x080005d5   Thumb Code    66  dht11.o(i.DHT11_IOout)
    DHT11_Response                           0x0800061d   Thumb Code   156  dht11.o(i.DHT11_Response)
    DHT11_Start                              0x08000721   Thumb Code    34  dht11.o(i.DHT11_Start)
    EXTI0_IRQHandler                         0x0800074d   Thumb Code    22  key.o(i.EXTI0_IRQHandler)
    EXTI1_IRQHandler                         0x08000769   Thumb Code    22  key.o(i.EXTI1_IRQHandler)
    EXTI2_IRQHandler                         0x08000785   Thumb Code    24  key.o(i.EXTI2_IRQHandler)
    EXTI3_IRQHandler                         0x080007a1   Thumb Code    24  key.o(i.EXTI3_IRQHandler)
    EXTILine_Config                          0x080007bd   Thumb Code   186  key.o(i.EXTILine_Config)
    EXTI_ClearITPendingBit                   0x08000879   Thumb Code     6  stm32f4xx_exti.o(i.EXTI_ClearITPendingBit)
    EXTI_GetITStatus                         0x08000885   Thumb Code    20  stm32f4xx_exti.o(i.EXTI_GetITStatus)
    EXTI_Init                                0x0800089d   Thumb Code   142  stm32f4xx_exti.o(i.EXTI_Init)
    GETdis                                   0x08000931   Thumb Code    24  sr04.o(i.GETdis)
    GPIO_Init                                0x08000981   Thumb Code   144  stm32f4xx_gpio.o(i.GPIO_Init)
    GPIO_PinAFConfig                         0x08000a11   Thumb Code    70  stm32f4xx_gpio.o(i.GPIO_PinAFConfig)
    GPIO_SetBits                             0x08000a57   Thumb Code     4  stm32f4xx_gpio.o(i.GPIO_SetBits)
    GPIO_Write                               0x08000a5b   Thumb Code     4  stm32f4xx_gpio.o(i.GPIO_Write)
    HCSR04_Init                              0x08000a61   Thumb Code    78  sr04.o(i.HCSR04_Init)
    KEY_Init                                 0x08000ab5   Thumb Code    42  key.o(i.KEY_Init)
    LDR_Init1                                0x08000ae5   Thumb Code   118  adc_ldr.o(i.LDR_Init1)
    LDR_Init2                                0x08000b65   Thumb Code   118  adc_ldr.o(i.LDR_Init2)
    NVIC_Init                                0x08000be5   Thumb Code   106  misc.o(i.NVIC_Init)
    NVIC_PriorityGroupConfig                 0x08000c5d   Thumb Code    10  misc.o(i.NVIC_PriorityGroupConfig)
    RCC_AHB1PeriphClockCmd                   0x08000c71   Thumb Code    26  stm32f4xx_rcc.o(i.RCC_AHB1PeriphClockCmd)
    RCC_APB2PeriphClockCmd                   0x08000c91   Thumb Code    26  stm32f4xx_rcc.o(i.RCC_APB2PeriphClockCmd)
    RCC_GetClocksFreq                        0x08000cb1   Thumb Code   214  stm32f4xx_rcc.o(i.RCC_GetClocksFreq)
    Read_DHT11_Data                          0x08000d99   Thumb Code   432  dht11.o(i.Read_DHT11_Data)
    Read_DHT11_DataByte                      0x08000fbd   Thumb Code    64  dht11.o(i.Read_DHT11_DataByte)
    SR04_Getdis                              0x08001001   Thumb Code    62  sr04.o(i.SR04_Getdis)
    SYSCFG_EXTILineConfig                    0x08001045   Thumb Code    60  stm32f4xx_syscfg.o(i.SYSCFG_EXTILineConfig)
    SysTick_CLKSourceConfig                  0x0800116d   Thumb Code    40  misc.o(i.SysTick_CLKSourceConfig)
    SystemInit                               0x08001195   Thumb Code    88  system_stm32f4xx.o(i.SystemInit)
    TIM4_IRQHandler                          0x080011fd   Thumb Code    38  timer.o(i.TIM4_IRQHandler)
    TIM_ClearITPendingBit                    0x08001231   Thumb Code     6  stm32f4xx_tim.o(i.TIM_ClearITPendingBit)
    TIM_GetITStatus                          0x08001237   Thumb Code    34  stm32f4xx_tim.o(i.TIM_GetITStatus)
    USART1_IRQHandler                        0x08001259   Thumb Code    60  usart.o(i.USART1_IRQHandler)
    USART_ClearITPendingBit                  0x0800129d   Thumb Code    30  stm32f4xx_usart.o(i.USART_ClearITPendingBit)
    USART_Cmd                                0x080012bb   Thumb Code    24  stm32f4xx_usart.o(i.USART_Cmd)
    USART_Config                             0x080012d5   Thumb Code   168  usart.o(i.USART_Config)
    USART_GetFlagStatus                      0x08001385   Thumb Code    26  stm32f4xx_usart.o(i.USART_GetFlagStatus)
    USART_GetITStatus                        0x0800139f   Thumb Code    84  stm32f4xx_usart.o(i.USART_GetITStatus)
    USART_ITConfig                           0x080013f3   Thumb Code    74  stm32f4xx_usart.o(i.USART_ITConfig)
    USART_Init                               0x0800143d   Thumb Code   204  stm32f4xx_usart.o(i.USART_Init)
    USART_ReceiveData                        0x08001511   Thumb Code    10  stm32f4xx_usart.o(i.USART_ReceiveData)
    USART_SendData                           0x0800151b   Thumb Code     8  stm32f4xx_usart.o(i.USART_SendData)
    __0printf$1                              0x08001525   Thumb Code    22  printf1.o(i.__0printf$1)
    __1printf$1                              0x08001525   Thumb Code     0  printf1.o(i.__0printf$1)
    __2printf                                0x08001525   Thumb Code     0  printf1.o(i.__0printf$1)
    __scatterload_copy                       0x08001545   Thumb Code    14  handlers.o(i.__scatterload_copy)
    __scatterload_null                       0x08001553   Thumb Code     2  handlers.o(i.__scatterload_null)
    __scatterload_zeroinit                   0x08001555   Thumb Code    14  handlers.o(i.__scatterload_zeroinit)
    beep_init                                0x080016b9   Thumb Code    52  beep_init.o(i.beep_init)
    delay_ms                                 0x080016f5   Thumb Code    22  delay.o(i.delay_ms)
    delay_us                                 0x0800170b   Thumb Code    48  delay.o(i.delay_us)
    display                                  0x0800173d   Thumb Code   174  display.o(i.display)
    display_Init                             0x080017fd   Thumb Code    50  display.o(i.display_Init)
    fputc                                    0x08001835   Thumb Code    32  main.o(i.fputc)
    main                                     0x08001859   Thumb Code   136  main.o(i.main)
    Region$$Table$$Base                      0x08001980   Number         0  anon$$obj.o(Region$$Table)
    Region$$Table$$Limit                     0x080019a0   Number         0  anon$$obj.o(Region$$Table)
    menu                                     0x20000000   Data           4  main.o(.data)
    flag                                     0x20000004   Data           4  main.o(.data)
    NUM                                      0x20000008   Data          10  display.o(.data)
    __stdout                                 0x20000024   Data           4  stdout.o(.data)
    __initial_sp                             0x20004028   Data           0  startup_stm32f401xx.o(STACK)



==============================================================================

Memory Map of the image

  Image Entry point : 0x08000195

  Load Region LR_IROM1 (Base: 0x08000000, Size: 0x000019c8, Max: 0x00060000, ABSOLUTE)

    Execution Region ER_IROM1 (Exec base: 0x08000000, Load base: 0x08000000, Size: 0x000019a0, Max: 0x00060000, ABSOLUTE)

    Exec Addr    Load Addr    Size         Type   Attr      Idx    E Section Name        Object

    0x08000000   0x08000000   0x00000194   Data   RO         2168    RESET               startup_stm32f401xx.o
    0x08000194   0x08000194   0x00000000   Code   RO         2214  * .ARM.Collect$$$$00000000  mc_w.l(entry.o)
    0x08000194   0x08000194   0x00000004   Code   RO         2478    .ARM.Collect$$$$00000001  mc_w.l(entry2.o)
    0x08000198   0x08000198   0x00000004   Code   RO         2481    .ARM.Collect$$$$00000004  mc_w.l(entry5.o)
    0x0800019c   0x0800019c   0x00000000   Code   RO         2483    .ARM.Collect$$$$00000008  mc_w.l(entry7b.o)
    0x0800019c   0x0800019c   0x00000000   Code   RO         2485    .ARM.Collect$$$$0000000A  mc_w.l(entry8b.o)
    0x0800019c   0x0800019c   0x00000008   Code   RO         2486    .ARM.Collect$$$$0000000B  mc_w.l(entry9a.o)
    0x080001a4   0x080001a4   0x00000000   Code   RO         2488    .ARM.Collect$$$$0000000D  mc_w.l(entry10a.o)
    0x080001a4   0x080001a4   0x00000000   Code   RO         2490    .ARM.Collect$$$$0000000F  mc_w.l(entry11a.o)
    0x080001a4   0x080001a4   0x00000004   Code   RO         2479    .ARM.Collect$$$$00002712  mc_w.l(entry2.o)
    0x080001a8   0x080001a8   0x00000024   Code   RO         2169    .text               startup_stm32f401xx.o
    0x080001cc   0x080001cc   0x0000002c   Code   RO         2493    .text               mc_w.l(uidiv.o)
    0x080001f8   0x080001f8   0x00000024   Code   RO         2508    .text               mc_w.l(init.o)
    0x0800021c   0x0800021c   0x00000016   Code   RO          611    i.ADC_Cmd           stm32f4xx_adc.o
    0x08000232   0x08000232   0x00000002   PAD
    0x08000234   0x08000234   0x00000030   Code   RO          612    i.ADC_CommonInit    stm32f4xx_adc.o
    0x08000264   0x08000264   0x0000020c   Code   RO          398    i.ADC_EXE           adc_ldr.o
    0x08000470   0x08000470   0x00000008   Code   RO          623    i.ADC_GetConversionValue  stm32f4xx_adc.o
    0x08000478   0x08000478   0x00000012   Code   RO          624    i.ADC_GetFlagStatus  stm32f4xx_adc.o
    0x0800048a   0x0800048a   0x00000002   PAD
    0x0800048c   0x0800048c   0x00000054   Code   RO          631    i.ADC_Init          stm32f4xx_adc.o
    0x080004e0   0x080004e0   0x000000b8   Code   RO          636    i.ADC_RegularChannelConfig  stm32f4xx_adc.o
    0x08000598   0x08000598   0x0000000a   Code   RO          638    i.ADC_SoftwareStartConv  stm32f4xx_adc.o
    0x080005a2   0x080005a2   0x00000002   PAD
    0x080005a4   0x080005a4   0x00000030   Code   RO          193    i.DHT11_IOin        dht11.o
    0x080005d4   0x080005d4   0x00000048   Code   RO          194    i.DHT11_IOout       dht11.o
    0x0800061c   0x0800061c   0x00000104   Code   RO          195    i.DHT11_Response    dht11.o
    0x08000720   0x08000720   0x0000002c   Code   RO          196    i.DHT11_Start       dht11.o
    0x0800074c   0x0800074c   0x0000001c   Code   RO          264    i.EXTI0_IRQHandler  key.o
    0x08000768   0x08000768   0x0000001c   Code   RO          265    i.EXTI1_IRQHandler  key.o
    0x08000784   0x08000784   0x0000001c   Code   RO          266    i.EXTI2_IRQHandler  key.o
    0x080007a0   0x080007a0   0x0000001c   Code   RO          267    i.EXTI3_IRQHandler  key.o
    0x080007bc   0x080007bc   0x000000ba   Code   RO          268    i.EXTILine_Config   key.o
    0x08000876   0x08000876   0x00000002   PAD
    0x08000878   0x08000878   0x0000000c   Code   RO          852    i.EXTI_ClearITPendingBit  stm32f4xx_exti.o
    0x08000884   0x08000884   0x00000018   Code   RO          856    i.EXTI_GetITStatus  stm32f4xx_exti.o
    0x0800089c   0x0800089c   0x00000094   Code   RO          857    i.EXTI_Init         stm32f4xx_exti.o
    0x08000930   0x08000930   0x00000050   Code   RO          475    i.GETdis            sr04.o
    0x08000980   0x08000980   0x00000090   Code   RO          918    i.GPIO_Init         stm32f4xx_gpio.o
    0x08000a10   0x08000a10   0x00000046   Code   RO          919    i.GPIO_PinAFConfig  stm32f4xx_gpio.o
    0x08000a56   0x08000a56   0x00000004   Code   RO          926    i.GPIO_SetBits      stm32f4xx_gpio.o
    0x08000a5a   0x08000a5a   0x00000004   Code   RO          929    i.GPIO_Write        stm32f4xx_gpio.o
    0x08000a5e   0x08000a5e   0x00000002   PAD
    0x08000a60   0x08000a60   0x00000054   Code   RO          476    i.HCSR04_Init       sr04.o
    0x08000ab4   0x08000ab4   0x00000030   Code   RO          269    i.KEY_Init          key.o
    0x08000ae4   0x08000ae4   0x00000080   Code   RO          399    i.LDR_Init1         adc_ldr.o
    0x08000b64   0x08000b64   0x00000080   Code   RO          400    i.LDR_Init2         adc_ldr.o
    0x08000be4   0x08000be4   0x00000078   Code   RO          557    i.NVIC_Init         misc.o
    0x08000c5c   0x08000c5c   0x00000014   Code   RO          558    i.NVIC_PriorityGroupConfig  misc.o
    0x08000c70   0x08000c70   0x00000020   Code   RO         1019    i.RCC_AHB1PeriphClockCmd  stm32f4xx_rcc.o
    0x08000c90   0x08000c90   0x00000020   Code   RO         1031    i.RCC_APB2PeriphClockCmd  stm32f4xx_rcc.o
    0x08000cb0   0x08000cb0   0x000000e8   Code   RO         1040    i.RCC_GetClocksFreq  stm32f4xx_rcc.o
    0x08000d98   0x08000d98   0x00000224   Code   RO          197    i.Read_DHT11_Data   dht11.o
    0x08000fbc   0x08000fbc   0x00000044   Code   RO          198    i.Read_DHT11_DataByte  dht11.o
    0x08001000   0x08001000   0x00000044   Code   RO          477    i.SR04_Getdis       sr04.o
    0x08001044   0x08001044   0x00000040   Code   RO         1354    i.SYSCFG_EXTILineConfig  stm32f4xx_syscfg.o
    0x08001084   0x08001084   0x000000e8   Code   RO         2176    i.SetSysClock       system_stm32f4xx.o
    0x0800116c   0x0800116c   0x00000028   Code   RO          561    i.SysTick_CLKSourceConfig  misc.o
    0x08001194   0x08001194   0x00000068   Code   RO         2178    i.SystemInit        system_stm32f4xx.o
    0x080011fc   0x080011fc   0x00000034   Code   RO          360    i.TIM4_IRQHandler   timer.o
    0x08001230   0x08001230   0x00000006   Code   RO         1422    i.TIM_ClearITPendingBit  stm32f4xx_tim.o
    0x08001236   0x08001236   0x00000022   Code   RO         1448    i.TIM_GetITStatus   stm32f4xx_tim.o
    0x08001258   0x08001258   0x00000044   Code   RO          326    i.USART1_IRQHandler  usart.o
    0x0800129c   0x0800129c   0x0000001e   Code   RO         1978    i.USART_ClearITPendingBit  stm32f4xx_usart.o
    0x080012ba   0x080012ba   0x00000018   Code   RO         1981    i.USART_Cmd         stm32f4xx_usart.o
    0x080012d2   0x080012d2   0x00000002   PAD
    0x080012d4   0x080012d4   0x000000b0   Code   RO          327    i.USART_Config      usart.o
    0x08001384   0x08001384   0x0000001a   Code   RO         1984    i.USART_GetFlagStatus  stm32f4xx_usart.o
    0x0800139e   0x0800139e   0x00000054   Code   RO         1985    i.USART_GetITStatus  stm32f4xx_usart.o
    0x080013f2   0x080013f2   0x0000004a   Code   RO         1987    i.USART_ITConfig    stm32f4xx_usart.o
    0x0800143c   0x0800143c   0x000000d4   Code   RO         1988    i.USART_Init        stm32f4xx_usart.o
    0x08001510   0x08001510   0x0000000a   Code   RO         1995    i.USART_ReceiveData  stm32f4xx_usart.o
    0x0800151a   0x0800151a   0x00000008   Code   RO         1998    i.USART_SendData    stm32f4xx_usart.o
    0x08001522   0x08001522   0x00000002   PAD
    0x08001524   0x08001524   0x00000020   Code   RO         2262    i.__0printf$1       mc_w.l(printf1.o)
    0x08001544   0x08001544   0x0000000e   Code   RO         2520    i.__scatterload_copy  mc_w.l(handlers.o)
    0x08001552   0x08001552   0x00000002   Code   RO         2521    i.__scatterload_null  mc_w.l(handlers.o)
    0x08001554   0x08001554   0x0000000e   Code   RO         2522    i.__scatterload_zeroinit  mc_w.l(handlers.o)
    0x08001562   0x08001562   0x00000002   PAD
    0x08001564   0x08001564   0x00000154   Code   RO         2269    i._printf_core      mc_w.l(printf1.o)
    0x080016b8   0x080016b8   0x0000003c   Code   RO          530    i.beep_init         beep_init.o
    0x080016f4   0x080016f4   0x00000016   Code   RO          133    i.delay_ms          delay.o
    0x0800170a   0x0800170a   0x00000030   Code   RO          134    i.delay_us          delay.o
    0x0800173a   0x0800173a   0x00000002   PAD
    0x0800173c   0x0800173c   0x000000c0   Code   RO          442    i.display           display.o
    0x080017fc   0x080017fc   0x00000038   Code   RO          443    i.display_Init      display.o
    0x08001834   0x08001834   0x00000024   Code   RO            4    i.fputc             main.o
    0x08001858   0x08001858   0x00000128   Code   RO            5    i.main              main.o
    0x08001980   0x08001980   0x00000020   Data   RO         2518    Region$$Table       anon$$obj.o


    Execution Region RW_IRAM1 (Exec base: 0x20000000, Load base: 0x080019a0, Size: 0x00004028, Max: 0x00018000, ABSOLUTE)

    Exec Addr    Load Addr    Size         Type   Attr      Idx    E Section Name        Object

    0x20000000   0x080019a0   0x00000008   Data   RW            6    .data               main.o
    0x20000008   0x080019a8   0x0000000a   Data   RW          444    .data               display.o
    0x20000012   0x080019b2   0x00000010   Data   RW         1071    .data               stm32f4xx_rcc.o
    0x20000022   0x080019c2   0x00000002   PAD
    0x20000024   0x080019c4   0x00000004   Data   RW         2492    .data               mc_w.l(stdout.o)
    0x20000028        -       0x00004000   Zero   RW         2166    STACK               startup_stm32f401xx.o


==============================================================================

Image component sizes


      Code (inc. data)   RO Data    RW Data    ZI Data      Debug   Object Name

       780        126          0          0          0       2166   adc_ldr.o
        60          8          0          0          0        528   beep_init.o
        70          0          0          0          0       1026   delay.o
      1040        244          0          0          0       3654   dht11.o
       248         24          0         10          0       1799   display.o
       346         26          0          0          0       3109   key.o
       332        164          0          8          0     287915   main.o
       180         24          0          0          0       2565   misc.o
       232         68          0          0          0       1581   sr04.o
        36          8        404          0      16384        856   startup_stm32f401xx.o
       374         24          0          0          0       6318   stm32f4xx_adc.o
       184         16          0          0          0       2576   stm32f4xx_exti.o
       222          0          0          0          0       3419   stm32f4xx_gpio.o
       296         30          0         16          0       4514   stm32f4xx_rcc.o
        64          4          0          0          0        728   stm32f4xx_syscfg.o
        40          0          0          0          0       2242   stm32f4xx_tim.o
       468          8          0          0          0       6979   stm32f4xx_usart.o
       336         32          0          0          0       1809   system_stm32f4xx.o
        52         14          0          0          0        486   timer.o
       244         16          0          0          0       1235   usart.o

    ----------------------------------------------------------------------
      5620        836        436         36      16384     335505   Object Totals
         0          0         32          0          0          0   (incl. Generated)
        16          0          0          2          0          0   (incl. Padding)

    ----------------------------------------------------------------------

      Code (inc. data)   RO Data    RW Data    ZI Data      Debug   Library Member Name

         0          0          0          0          0          0   entry.o
         0          0          0          0          0          0   entry10a.o
         0          0          0          0          0          0   entry11a.o
         8          4          0          0          0          0   entry2.o
         4          0          0          0          0          0   entry5.o
         0          0          0          0          0          0   entry7b.o
         0          0          0          0          0          0   entry8b.o
         8          4          0          0          0          0   entry9a.o
        30          0          0          0          0          0   handlers.o
        36          8          0          0          0         68   init.o
       372         14          0          0          0        184   printf1.o
         0          0          0          4          0          0   stdout.o
        44          0          0          0          0         80   uidiv.o

    ----------------------------------------------------------------------
       504         30          0          4          0        332   Library Totals
         2          0          0          0          0          0   (incl. Padding)

    ----------------------------------------------------------------------

      Code (inc. data)   RO Data    RW Data    ZI Data      Debug   Library Name

       502         30          0          4          0        332   mc_w.l

    ----------------------------------------------------------------------
       504         30          0          4          0        332   Library Totals

    ----------------------------------------------------------------------

==============================================================================


      Code (inc. data)   RO Data    RW Data    ZI Data      Debug   

      6124        866        436         40      16384     330289   Grand Totals
      6124        866        436         40      16384     330289   ELF Image Totals
      6124        866        436         40          0          0   ROM Totals

==============================================================================

    Total RO  Size (Code + RO Data)                 6560 (   6.41kB)
    Total RW  Size (RW Data + ZI Data)             16424 (  16.04kB)
    Total ROM Size (Code + RO Data + RW Data)       6600 (   6.45kB)

==============================================================================

